:020000040800F2
:100000001819002001010008FD200008191C000833
:10001000F9200008B9060008552A00080000000071
:10002000000000000000000000000000D5220008D1
:10003000090700080000000001210008D92200087B
:100040001B0100081B0100081B0100081B01000820
:100050001B0100081B0100081B0100081B01000810
:100060001B0100081B0100081B0100081B01000800
:100070001B0100081B010008BD060008CD06000892
:100080001B0100081B0100081B0100081B010008E0
:100090001B0100081B0100081B0100081B010008D0
:1000A0001B0100081B0100081B0100081B010008C0
:1000B0001B0100081B0100081B0100081B010008B0
:1000C0001B0100081B0100081B0100081B010008A0
:1000D0001B010008312A00081B0100081B01000851
:1000E0001B0100081B0100081B010008DFF80CD0F1
:1000F00000F052FA00480047953400081819002013
:100100000648804706480047FEE7FEE7FEE7FEE7B1
:10011000FEE7FEE7FEE7FEE7FEE7FEE783230008D3
:10012000ED000008202A04DB203A21FA02F0002129
:10013000704721FA02F3D040C2F1200291400843F7
:100140001946704740EA01039B0703D009E008C93C
:10015000121F08C0042AFAD203E011F8013B00F88C
:10016000013B521EF9D27047D2B201E000F8012BD8
:10017000491EFBD270470022F6E710B513460A4627
:1001800004461946FFF7F0FF204610BD421C10F848
:10019000011B0029FBD1801A704730B50B46014680
:1001A00000202022012409E021FA02F59D4205D316
:1001B00003FA02F5491B04FA02F52844151EA2F1C0
:1001C0000102F1DC30BD2DE9F05F054600209246CA
:1001D0009B4688460646814640241BE02846414609
:1001E00047462246FFF79EFF53465A46C01A9141A2
:1001F00010D311461846224600F0E0F92D1A67EB9D
:1002000001084F4622460120002100F0D7F917EBE4
:1002100000094E41201EA4F10104DFDC48463146AE
:100220002A464346BDE8F09F2DE9FE4F804681EA0D
:100230000300C00F0C46009021F0004123F0004560
:10024000B8EB0200A94105D24046214690461C4623
:100250000B46024623F00040104347D0270DC7F35A
:100260000A00C3F30A510290401A019040286BDA49
:10027000C3F3130040F4801B0098924620B1002382
:10028000D2EB030A63EB0B0B01985946C0F1400215
:10029000504600F093F906460D4650465946019ADD
:1002A00000F09BF910EB08006141002487EA11522D
:1002B00084EAE7731A4340D0009A62B3019A012A94
:1002C0004FEA075215DC001B61EB02014FF00042C0
:1002D00002EA0752CDE90042001C41F58011324686
:1002E0002B4600F09BF903B0BDE8F08F4046214655
:1002F000F9E7001B61EB0201001C41F580130018B7
:100300005B412018A2F5001747EB030140EAD570C6
:10031000B6196D4111E06D084FEA360645EAC07521
:100320004FEA0752001B61EB0201001C41F58011EE
:1003300049084FEA30000019514132462B4603B0BC
:10034000BDE8F04F00F05BB90098012240000023A7
:10035000D0EB020263EBE073009821464FEAE074B1
:10036000B8EB000061EB0401E9E783F000435BE7D1
:1003700081F0004158E72DE9FE4F81EA030404F0C3
:10038000004421F0004100944FF0000B23F00043A3
:1003900050EA01045ED052EA03045BD0C3F30A546E
:1003A000C1F30A552C44A4F2F3340194A0FB025487
:1003B000C1F3130141F48011C3F3130343F4801319
:1003C00001FB024400FB034E840A970A44EA81546D
:1003D00047EA8357A4FB076802958D0A05FB07854A
:1003E0004FEA932C04FB0C542705029D4FEA065854
:1003F00047EA1637B5EB08056EEB070C870E920E31
:1004000047EA811742EA8312A7FB0201B6EB0B0110
:1004100064EB00042B0D43EA0C335E1844EB1C50D4
:10042000DA465146E7FB0201C5F313044FEA0B33EA
:1004300043EA14534FEA0432019C43EA0603A4F151
:100440000C040294009CCDE900B400F0E7F803B07E
:10045000BDE8F08F00200146F9E72DE9F04D81EA73
:10046000030404F0004B21F0004514464FF0000A4D
:1004700023F0004150EA050220D054EA01021DD0C9
:10048000C5F30A570246C5F31303C1F31300C1F3C2
:100490000A5640F4801543F48013A7EB0608101B9E
:1004A000D64608F2FD3873EB050002D308F10108C7
:1004B00001E092185B41B8F1000F03DA0020014619
:1004C000BDE8F08D00204FF48011064684460EE012
:1004D000171B73EB050705D3121B63EB05030643DC
:1004E0004CEA010C49084FEA300092185B4150EA8F
:1004F0000107EDD152EA030012D082EA040083EA38
:100500000501084305D0101BAB4106D20122002390
:1005100006E000224FF0004302E06FF001025310AA
:100520001AEB06004CEB085110EB0A0041EB0B01F3
:10053000BDE8F04D00F063B8C1F30A52C1F31301F6
:1005400040F2FF3341F480119A4202DA0020014662
:10055000704740F233439A42A2F2334202DC5242E5
:10056000FFF7E0BD00F02AB830B5041E71F10004B9
:1005700004DB4FF00044404264EB0101141E73F1B0
:10058000000405DB1C464FF00043524263EB0403BA
:10059000994208BF904230BD064C074D06E0E06826
:1005A00040F0010394E8070098471034AC42F6D3BA
:1005B000FFF7A0FDE034000800350008202A04DB26
:1005C000203A00FA02F1002070479140C2F1200366
:1005D00020FA03F3194390407047202A06DBCB171B
:1005E000203A41FA02F043EAE07306E041FA02F3EE
:1005F000D040C2F12002914008431946704710B51F
:10060000141E73F1000408DA401C41F10001921835
:100610005B411A4301D120F0010010BD2DE9F04DDE
:1006200092469B4611B1B1FA81F202E0B0FA80F233
:1006300020329046FFF7C2FF04460F4640EA0A0008
:1006400041EA0B0153465A46084313D0114653EA78
:10065000010019D0C8F140025046FFF763FD05467E
:100660000E46504659464246FFF7A8FF084305D0BC
:10067000012004E020463946BDE8F08D0020054306
:1006800046EAE0762C4337430A986305E40AA0EB78
:1006900008000022FD0A44EA47540A3002D500202F
:1006A0000146E9E7010510196941DDE9084500192E
:1006B0006941BDE8F04DA2E700BFFEE710B5024872
:1006C00000F0AAF810BD0000FC00002010B50248A0
:1006D00000F0A2F810BD0000B800002030B590F87E
:1006E00040500124AC40C56B6C6004686360446892
:1006F000102C04D10468A2600468E16003E004687F
:10070000A1600468E26030BD704772B600BFFEE7CA
:100710000146002291F82100022808D004208863B5
:1007200000BF002081F8200000BF0120704708684A
:10073000006820F00E000B6818600868006820F060
:1007400001000B68186091F8403001209840CB6B95
:100750005860012081F8210000BF002081F82000AE
:1007600000BF1046E2E7000070B50446002594F88B
:100770002100022803D00420A063012548E020685E
:10078000006820F00E00216808602068006820F0F2
:100790000100216808601F492068884201D10120BA
:1007A00026E01C4914312068884201D110201FE046
:1007B000184928312068884201D1801518E0154970
:1007C0003C312068884201D1801411E01149503138
:1007D0002068884202D14FF4803009E00D4964312D
:1007E0002068884202D14FF4801001E04FF0807001
:1007F000084908394860012084F8210000BF002022
:1008000084F8200000BF606B10B12046616B884700
:10081000284670BD0800024070B50446E06B0568CC
:100820002068066894F8401004208840284000287A
:1008300046D006F00400002842D02068006800F08E
:10084000200028B92068006820F0040021680860B2
:1008500057492068884201D1042027E054491431C7
:100860002068884201D1402020E051492831206889
:10087000884201D1001519E04D493C312068884279
:1008800002D14FF4804011E049495031206888423C
:1008900002D14FF4802009E0454964312068884244
:1008A00002D14FF4800001E04FF0806040490839E8
:1008B0004860E06A00287AD02046E16A884776E0FE
:1008C00094F84010022088402840A0B306F00200AF
:1008D00088B32068006800F0200040B920680068F4
:1008E00020F00A0021680860012084F821003049C6
:1008F0002068884201D1022028E02D491431206867
:10090000884201D1202021E02949283120688842ED
:1009100001D140151AE026493C312068884202D1B5
:100920004FF4005012E0224950312068884203D130
:100930004FF400300AE017E01D4964312068884216
:1009400002D14FF4001001E04FF00070184908394F
:10095000486000BF002084F8200000BFA06A30B3C8
:100960002046A16A884722E094F840100820884079
:100970002840E0B106F00800C8B12068006820F007
:100980000E002168086094F8401001208840E16B57
:1009900048600120A06384F8210000BF002084F893
:1009A000200000BF206B10B12046216B884770BD2E
:1009B000080002400146002209B901207047164B89
:1009C0000868C01A1423B0FBF3F0800008641248D2
:1009D0000838C863022081F821000868026843F6DD
:1009E000F0708243D1E901031843CB6818430B69C7
:1009F00018434B6918438B691843CB69184302436A
:100A00000868026000208863012081F8210000202E
:100A100081F8200000BFD1E7080002402DE9F04135
:100A200004460D4616461F464FF0000800BF94F8D6
:100A30002000012802D10220BDE8F081012084F8C5
:100A4000200000BF94F8210001282CD1022084F856
:100A500021000020A0632068006820F001002168C8
:100A600008603B46324629462046FFF737FEE06ADB
:100A700030B12068006840F00E00216808600BE08B
:100A80002068006820F00400216808602068006881
:100A900040F00A00216808602068006840F001000A
:100AA0002168086006E000BF002084F8200000BF35
:100AB0004FF002084046BFE72DE9F8470346002201
:100AC00094466EE14FF0010808FA02F4D1F8008074
:100AD00008EA0400A0427DD1DFF8DCA2D1F804804E
:100AE000A8EB0A09D0453AD014DCB8F1030F50D076
:100AF00009DCB8F1000F31D0B8F1010F1CD0B8F10A
:100B0000020F49D120E0B8F1110F18D0B8F1120F3F
:100B100042D11EE0B9F5881F25D006DCB9F5803F2B
:100B200020D0B9F5801F37D11AE0B9F5001F18D0D1
:100B3000B9F5041F30D117E0D1F80CC02DE0D1F881
:100B40000C8008F1040C28E0D1F80C8008F1080CA6
:100B500023E0D1F80C8008F10C0C1EE000BF00BFB0
:100B600000BF00BF00BF00BFD1F80880B8F1000F80
:100B700002D14FF0040C0BE0D1F80880B8F1010F5E
:100B800003D14FF0080C1C6102E04FF0080C5C61CF
:100B900003E04FF0000C00E000BF00BFFF2801D8C9
:100BA000984601E003F104084646FF2802D84FEAC0
:100BB000820803E0A2F108084FEA88084746D6F801
:100BC00000804FF00F0909FA07F928EA09080CFA22
:100BD00007F900E088E048EA0908C6F80080D1F883
:100BE000048008F08058B8F1805F7DD100BFDFF845
:100BF000CC81D8F8188048F00108DFF8C091C9F816
:100C00001880C846D8F8188008F00108CDF8008090
:100C100000BF00BF4FEAB9384FEA920958F829508F
:100C20004FEA82784FEA18794FF00F0808FA09F86E
:100C300025EA0805DFF88881434502D14FF0000816
:100C400016E0DFF88081434502D14FF001080FE044
:100C5000DFF87481434502D14FF0020808E0DFF865
:100C60006C81434502D14FF0030801E04FF00408C6
:100C70004FEA82794FEA197908FA09F848EA050536
:100C8000DFF84C814FEA920948F82950D1F80480E6
:100C900008F48018B8F5801F0AD1DFF83881D8F839
:100CA000008048EA0008DFF82C91C9F8008009E0CC
:100CB000DFF82081D8F8008028EA0008DFF81491D6
:100CC000C9F80080D1F8048008F40018B8F5001FB6
:100CD00010D1DFF8008108F10408D8F8008048EA54
:100CE0000008DFF8F09000E05AE009F10409C9F8C3
:100CF00000800DE0DFF8DC8008F10408D8F80080FF
:100D000028EA0008DFF8CC9009F10409C9F800804E
:100D1000D1F8048008F40038B8F5003F0ED1DFF8B0
:100D2000B480A8F10408D8F8008048EA0008DFF889
:100D3000A490A9F10409C9F800800DE0DFF89480BF
:100D4000A8F10408D8F8008028EA0008DFF88490A9
:100D5000A9F10409C9F80080D1F8048008F48038AA
:100D6000B8F5803F0ED1DFF86C80A8F10808D8F8FC
:100D7000008048EA0008DFF85C90A9F10809C9F88A
:100D800000800DE0DFF84C80A8F10808D8F800805A
:100D900028EA0008DFF83C90A9F10809C9F80080AA
:100DA000521CD1F8008028FA02F8B8F1000F7FF445
:100DB00089AEBDE8F8870000000011100010024065
:100DC00000080140000C01400010014000140140E7
:100DD0000800014008040140024693680B400BB133
:100DE000012000E0002070470148006870470000C3
:100DF00000000020034800680349097808440149BD
:100E000008607047000000200800002010B5084866
:100E1000006840F0100006490860032000F0A8F8C0
:100E20000F2000F007F800F02BF8002010BD0000A4
:100E30000020024070B504460E4800784FF47A71E5
:100E4000B1FBF0F00C490968B1FBF0F5284600F061
:100E5000F9FB08B1012070BD102C07D200222146F9
:100E6000501E00F047F80548046001E00120F2E759
:100E70000020F0E7080000200C0000200400002003
:100E800008B500BF1148806940F001000F49886132
:100E90000846806900F00100009000BF00BF00BF5D
:100EA0000846C06940F08050C8610846C06900F03B
:100EB0008050009000BF00BF00BF0549486820F087
:100EC000E06040F00070486000BF08BD00100240C4
:100ED0000000014001460846002809DB00F01F031E
:100EE00001229A4043099B0003F1E023C3F800214B
:100EF00000BF70472DE9F05F80460D46164600277B
:100F000001F0C0FD074639462A46334601F0070086
:100F1000C0F1070ABAF1040F02D94FF0040A01E048
:100F2000C0F1070AD14600F1040ABAF1070F02D254
:100F30004FF0000A01E0A0F1030AD4464FF0010A85
:100F40000AFA09FAAAF1010A0AEA020A0AFA0CFAEA
:100F50004FF0010B0BFA0CFBABF1010B0BEA030B8F
:100F60004AEA0B042146404601F094FDBDE8F09F9B
:100F700000BF00F00702064B19684FF6FF03194047
:100F8000044B0B4343EA0221014B196000BF704739
:100F90000CED00E00000FA0570B504460D460CB9F2
:100FA000012070BD5A48006800F00700A8420ED228
:100FB0005748006820F00700284355490860084654
:100FC000006800F00700A84201D00120E9E720787E
:100FD00000F0020002281DD1207800F0040004284F
:100FE00005D14C48406840F4E0604A4948602078A8
:100FF00000F00800082805D14648406840F46050D9
:10100000444948604348406820F0F000A168084324
:1010100040494860207800F0010078B360680128FA
:1010200006D13C48006800F4003090B90120B8E7D0
:101030006068022806D13748006800F0007040B9A7
:101040000120AEE73348006800F0020008B9012033
:10105000A7E73048406820F00300616808432D4945
:101060004860FFF7C1FE064609E0FFF7BDFE801BA2
:1010700041F28831884202D9032092E707E02548EF
:10108000406800F00C006168B0EB810FEDD12048A2
:10109000006800F00700A8420ED91D48006820F043
:1010A000070028431A4908600846006800F0070056
:1010B000A84201D0012074E7207800F00400042841
:1010C00007D11448406820F4E060E1680843114902
:1010D0004860207800F00800082808D10D484068D2
:1010E00020F46050216940EAC1000A49486000F0DC
:1010F0003FF808494968C1F30311074A515CC840E9
:101100000649086006480068FFF794FE002048E79B
:101110000020024000100240C63400080C000020ED
:101120000400002001480068704700000C00002007
:1011300000B5FFF7F7FF04494968C1F30221034AEC
:10114000515CC84000BD000000100240D6340008C9
:1011500000B5FFF7E7FF04494968C1F3C221034A1C
:10116000515CC84000BD000000100240D6340008A9
:1011700070B500210022002400230020134D69686F
:1011800001F00C05F5B1042D02D0082D19D101E0B4
:101190000F4819E00F4DC1F38346AB5D01F4803574
:1011A00055B10A4D6D68C5F340450B4E725D084D53
:1011B0005D43B5FBF2F402E0084D03FB05F4204665
:1011C00002E000BF024800BF00BF70BD0010024037
:1011D00000127A00B4340008C434000800093D004D
:1011E000F8B504460CB90120F8BD207800F00100E4
:1011F000002878D0F848406800F00C0004280CD093
:10120000F548406800F00C00082811D1F248406809
:1012100000F48030B0F5803F0AD1EF48006800F458
:10122000003000285FD0606800285CD10120DBE737
:1012300000BF6068B0F5803F06D1E748006840F421
:101240008030E549086028E0606858B9E2480068E5
:1012500020F48030E04908600846006820F48020CF
:1012600008601AE06068B0F5A02F0BD1DA4800687A
:1012700040F48020D84908600846006840F4803077
:1012800008600AE0D448006820F48030D249086041
:101290000846006820F48020086000BF606888B1BC
:1012A000FFF7A2FD054606E0FFF79EFD401B642800
:1012B00001D9032098E7C848006800F400300028EE
:1012C000F2D010E0FFF790FD054606E0FFF78CFD39
:1012D000401B642801D9032086E7BF48006800F45A
:1012E00000300028F2D1207800F00200022857D107
:1012F000B948406800F00C0050B1B748406800F0B1
:101300000C00082818D1B448406800F4803098B91F
:10131000B148006800F0020020B12069012801D026
:10132000012061E7AC48006820F0F800616940EAFC
:10133000C100A949086033E02069E8B10120A7494C
:101340000860FFF751FD054606E0FFF74DFD401B25
:10135000022801D9032047E79F48006800F00200F7
:101360000028F2D09C48006820F0F800616940EA4B
:10137000C1009949086013E0002098490860FFF710
:1013800033FD054606E0FFF72FFD401B022801D97B
:10139000032029E79048006800F002000028F2D1FD
:1013A000207800F0080008282DD1A069B8B10120EC
:1013B0008B490860FFF718FD054606E0FFF714FDAE
:1013C000401B022801D903200EE78348406A00F041
:1013D00002000028F2D0012000F094FE13E000206B
:1013E0007F490860FFF700FD054606E0FFF7FCFCBB
:1013F000401B022801D90320F6E67748406A00F036
:1014000002000028F2D1207800F00400042873D1F3
:1014100000277148C06900F0805070B900BF6E4865
:10142000C06940F080506C49C8610846C06900F04E
:101430008050009000BF00BF01276A48006800F498
:101440008070B0B96748006840F4807065490860F2
:10145000FFF7CAFC054606E0FFF7C6FC401B642800
:1014600001D90320C0E65F48006800F480700028BE
:10147000F2D000BFE068012806D15748006A40F06A
:1014800001005549086227E0E06858B95248006AEF
:1014900020F00100504908620846006A20F004006C
:1014A000086219E0E06805280BD14B48006A40F05B
:1014B0000400494908620846006A40F001000862D9
:1014C0000AE04548006A20F00100434908620846E6
:1014D000006A20F00400086200BFE068A0B1FFF7D6
:1014E00083FC054609E0FFF77FFC401B41F2883191
:1014F000884202D9032077E622E03748006A00F0EC
:1015000002000028EFD012E0FFF76EFC054608E06D
:10151000FFF76AFC401B41F28831884201D9032061
:1015200062E62D48006A00F002000028F0D1012F89
:1015300005D12948C06920F080502749C86100BF03
:10154000E069C8B32448406800F00C00082860D067
:10155000E069022848D1002020490866FFF744FCD2
:10156000054606E0FFF740FC401B022801D9032096
:101570003AE61948006800F000700028F2D1206AAD
:10158000B0F5803F07D11448406820F40030A168CE
:10159000084311494860D4E9080108430E494968E5
:1015A00021F4741108430C49486001200B49086676
:1015B000FFF71AFC054607E03DE0FFF715FC401B6E
:1015C000022801D903200FE60348006800F00070EC
:1015D0000028F2D02FE0000000100240000042423C
:1015E0008004424200700040002014490866FFF762
:1015F000FBFB054606E0FFF7F7FB401B022801D97D
:101600000320F1E50E48006800F000700028F2D1D8
:1016100011E0E069012800D1E6E50948466806F4D2
:101620008031206A814204D106F47011606A8142DF
:1016300001D00120D8E50020D6E50000000042429C
:101640000010024070B504462546681EB0F1807F48
:1016500001D301200FE0681E4FF0E02148610F2107
:101660004FF0FF3001F016FA00204FF0E0218861C2
:1016700007200861002070BDF8B504460D461646E7
:1016800094F8420020282DD105B10EB90120F8BDF3
:10169000012020630020606332462946204601F085
:1016A00033F90746206B012819D100BF00200090B4
:1016B00020680068009020684068009000BF00BF6C
:1016C00000BF00BF21680C3151E8001F41F010003D
:1016D00021680C3141E80002002AF3D100E0012723
:1016E0003846D4E70220D2E770B504460D460949D2
:1016F00020680968096888420BD106492A4648686B
:10170000054900F09CFD4FF4807203492046FFF725
:10171000B3FF70BD40120020401100207047000050
:101720002DE9F84F0446206805682068C6682068DF
:1017300047694FF00009CA4605F00F09B9F1000FDB
:101740000AD105F0200038B106F0200020B1204673
:1017500000F0DEFFBDE8F88FB9F1000F7BD007F095
:10176000010018B906F49070002874D005F001004B
:1017700030B106F4807018B1606C40F00100606414
:1017800005F0040030B107F0010018B1606C40F0C2
:101790000200606405F0020030B107F0010018B1EA
:1017A000606C40F00400606405F0080048B106F089
:1017B000200010B907F0010018B1606C40F008007B
:1017C0006064606C002845D005F0200028B106F068
:1017D000200010B1204600F09BFF20684069C0F354
:1017E000801A606C00F0080010B9BAF1000F2CD01C
:1017F000204600F034FF2068406900F0400000B34C
:1018000000BF00BF2168143151E8001F21F04000E3
:101810002168143141E80002002AF3D100BFE06BD7
:1018200050B17748E16B4863E06BFEF79DFF88B1EC
:10183000E06B416B88470DE02046FFF76FFF09E042
:1018400009E02046FFF76AFF04E02046FFF766FF45
:10185000002060647EE7206B012877D105F010003E
:10186000002873D006F010000028FAD000BF002036
:10187000009020680068009020684068009000BFD9
:1018800000BF2068406900F0400000285FD0E06B96
:10189000006840681FFA80F8B8F1000F55D0A08D9D
:1018A000404552DDA4F82E80E06B8069202843D0AB
:1018B00000BF00BF21680C3151E8001F21F4807087
:1018C00021680C3141E80002002AF3D100BF00BFBB
:1018D00000BF2168143151E8001F21F00100216888
:1018E000143141E80002002AF3D100BF00BF00BF5D
:1018F0002168143151E8001F21F0400021681431A3
:1019000041E80002002AF3D100BF202084F8420001
:101910000020206300BF00BF21680C3151E8001F88
:1019200021F0100021680C3141E80002002AF3D1B7
:1019300000BFE06BFEF7ECFE02206063A08DE28D3D
:10194000801A81B22046FFF7CFFE03E742E0A08D68
:10195000E18D401A1FFA80F8E08DD0B3B8F1000F86
:1019600037D000BF00BF21680C3151E8001F21F4BF
:10197000907021680C3141E80002002AF3D100BFC9
:1019800000BF00BF2168143151E8001F21F00100A1
:101990002168143141E80002002AF3D100BF202061
:1019A00084F842000020206300BF00BF21680C3192
:1019B00051E8001F21F0100021680C3141E80002BD
:1019C000002AF3D100BF0220606341462046FFF7A2
:1019D0008BFEBFE605F0800030B106F0800018B144
:1019E000204600F0F5FFB5E605F0400030B106F006
:1019F000400018B1204600F068FEABE600BFA9E643
:101A0000C924000810B504460CB9012010BDA06916
:101A100000B100E000BF94F8410028B9002084F82C
:101A20004000204600F02AF8242084F84100206875
:101A3000C06820F400502168C860204600F0E6FE2F
:101A40002068006920F4904021680861206840699E
:101A500020F02A00216848612068C06840F40050E6
:101A60002168C86000206064202084F8410084F868
:101A700042000020606300BFC8E7000010B586B0D8
:101A80000446002002900390049005903749206896
:101A9000884269D100BF3648806940F480403449AB
:101AA00088610846806900F48040019000BF00BF53
:101AB00000BF0846806940F00400886108468069DC
:101AC00000F00400019000BF00BF48150290022002
:101AD00003900320059002A92648FEF7EDFF4FF47E
:101AE0008060029000200390049002A92148FEF734
:101AF000E3FF2148214908600020486000211F4879
:101B000081608021C1600021016141618161C16109
:101B1000FEF750FF08B1FEF7F8FD00BF1748E0637D
:101B2000446200BF1448143815490860102048600A
:101B30000021134881608021C16000210161416161
:101B40008161C161FEF736FF08B1FEF7DEFD00BF1F
:101B50000B48A063446200BF002211462520FFF716
:101B6000C9F92520FFF7B6F906B010BD00380140CD
:101B7000001002400008014058000240B800002058
:101B8000FC00002070477047F7B50446154694F8EE
:101B90004100202836D1019800B10DB90120FEBDC9
:101BA00001982062A584E58400206064212084F8E7
:101BB00041001548A16B88621448A16BC8621448A3
:101BC000A16B08630020A16B486301AE23681A1D56
:101BD00031682B46A06BFEF721FF6FF040002168B3
:101BE000086000BF00BF2168143151E8001F41F0B8
:101BF00080002168143141E80002002AF3D100BFBF
:101C00000020CCE70220CAE7F92500085126000889
:101C1000DD2400087047704700BFFEE730B54FF481
:101C20008053174800F003042CB1C01C20F00300BF
:101C3000134C041B1B1B0246124C22600024114D46
:101C40006C60D018083820F003000F4C206000248E
:101C50000D4D2D686C600C4D2D682C601146441A9A
:101C60004C60094C24680C60084D4C682C60084D91
:101C70004C682C604FF00044064D2C6030BD0000D5
:101C800040010020340000203C00002044000020DF
:101C9000400000204800002010B50146164800E032
:101CA000006803688B42FBD30246436813448B42AF
:101CB00004D143684C682344436001460A464B689C
:101CC00013440468A34211D10C4C03682468A34256
:101CD00008D04B680468646823444B6003681B6841
:101CE0000B6005E0054B1B680B6001E003680B60AF
:101CF000884200D0016010BD340000203C0000206C
:101D000010B508210348FFF767F808B1012010BD9E
:101D10000020FCE7000C014010B500F049F801215B
:101D20000D4800F039F818B10CA10E4800F04AF93E
:101D30000221094800F030F818B10BA1094800F061
:101D400041F90421044800F027F818B108A105481A
:101D500000F038F910BD00005C000020E58D95E52D
:101D600087BB0A0040120020E58F8CE587BB0A0084
:101D7000E995BFE68C890A000121417204490A886D
:101D80000988491C024B1980024941F8220070471A
:101D900058000020EC1400200246D07A084020B100
:101DA000D07A8843D072012070470020FCE7000001
:101DB00010B5002427E0164951F824100868804720
:101DC000134951F824100872114850F82400807A01
:101DD00020B1012808D0022812D10BE00C4951F89B
:101DE000240001F0FEFA0CE0094951F8240001F04A
:101DF000EBFA06E0064951F8240001F009FB00E087
:101E000000BF00BF641C034800888442D3DB10BDC0
:101E1000EC140020580000202DE9F04105464FF059
:101E200000082B48006808B9FFF7F8FE2948006849
:101E30002840002848D1002D46D0083505F0030081
:101E400020B105F00300C0F104000544002D3BD093
:101E500021480068854237D8204E3046046801E0AA
:101E6000264624686068A84202D220680028F7D17C
:101E700017480068844227D0306800F108082068BD
:101E800030606068401B102807D967196068401BE4
:101E9000786065603846FFF7FFFE0F4960680968A3
:101EA000081A0D490860084600680D49096888420B
:101EB00003D2094800680A49086006496068096851
:101EC00008436060002020604046BDE8F0810000CB
:101ED0003C0000204800002040000020340000208A
:101EE0004400002010B5054800F04CFA044800F00A
:101EF00049FA044800F046FA10BD00001000002026
:101F00001C0000202800002030B5C1B004460EE0BF
:101F1000606800F0D9F905462A4601A9606800F01A
:101F2000A6F92A4601A9A06800F089F900BF6068F7
:101F300000F0CAF90028EBD141B030BD70B50446BD
:101F40000EE0A06800F0C0F905462A460949A068DD
:101F500000F08DF92A4607492068FFF715FE00BFFB
:101F6000A06800F0B1F920B1206890F84100202865
:101F7000E7D070BD4C12002010B50C20FFF74CFFCD
:101F80000D4948600C20FFF747FF0B49886001228C
:101F90004868910200F0CAF8074901228868910256
:101FA00000F0C4F80548044908604FF480720868DE
:101FB0000349FFF761FB10BD4012002070000020B4
:101FC000401100200FB438B5044606A800904FF425
:101FD00080710948009B059A00F03EFD00200090AA
:101FE0000548FEF7D3F885B22A460349A06800F0F9
:101FF00026F938BC5DF814FB4C13002008B500BF6F
:102000000E48406940F001000C49486108464069AB
:1020100000F00100009000BF00BF002211460E201A
:10202000FEF768FF0E20FEF755FF002211460F2035
:10203000FEF760FF0F20FEF74DFF08BD00100240C5
:1020400000B585B00020019002900390049000BF7D
:102050001948806940F02000174988610846806966
:1020600000F02000009000BF00BF00BF084680695C
:1020700040F0040088610846806900F00400009088
:1020800000BF00BF00BF0846806940F008008861BB
:102090000846806900F00800009000BF00BF0820DB
:1020A0000190002002900220039001A90348FEF74E
:1020B00003FD05B000BD000000100240000C01400F
:1020C00010B50B480B4908604FF4E130486000211F
:1020D00008488160C16001610C214161002181617A
:1020E000C161FFF78FFC08B1FEF70FFB10BD0000C8
:1020F000003801407000002000BFFEE700BFFEE78F
:102100007047000008B508490968C9084FF47A7299
:10211000B1FBF2F14143009100BF00BF00994A1E9C
:1021200000920029F9D108BD0C00002070B50446CA
:102130000D46164615B1681E284018B1284601F014
:1021400031F9054600206080E0802680022D03DA08
:10215000A060A080401E70BD05FB06F0FFF75CFE8E
:10216000A060A06818B90020A080401EF3E7681E98
:10217000A08028B2EFE72DE9F04704468A461646CC
:102180001D46A088401C1FFA80F92788A0880540BA
:10219000012F09D005FB07F085B209FB07F01FFAF4
:1021A00080F906FB07F086B2A9EB0500B04201DD1D
:1021B000304601E0A9EB05001FFA80F8A168481934
:1021C00042465146FDF7BEFFA6EB08020AEB0801A6
:1021D000A068FDF7B7FFBDE8F0872DE9F04704469A
:1021E000894616461D46A088401C1FFA80FA27889B
:1021F000A0880540012F09D005FB07F085B20AFB36
:1022000007F01FFA80FA06FB07F086B2AAEB05007A
:10221000B04201DD304601E0AAEB05001FFA80F86C
:10222000A068411942464846FDF78CFFA6EB08021C
:1022300009EB0800A168FDF785FFBDE8F0872DE9EF
:10224000F04104460F461546204600F034F8064695
:10225000AE4200DA354663882A4639462046FFF703
:102260008AFF6088284460802846BDE8F08170B508
:1022700004460E4615462A463146204600F006F82A
:102280000546E0882844E080284670BD2DE9F041ED
:1022900005460F461446284600F016F80646B44296
:1022A00000DD3446EB88224639462846FFF795FF85
:1022B0002046BDE8F08101468888401C4A88801A83
:1022C000CA88104480B2704701464888CA88801A7C
:1022D00080B270477047000010B504480068401C89
:1022E00002490860FEF786FD10BD00004C0000208A
:1022F00010B5FFF741FE0720054908710548086041
:102300000846FFF739FD044800F056F810BD0000FC
:102310005C000020011D00081000002000B58FB0F7
:10232000282105A8FDF727FF14216846FDF723FFA4
:1023300001200590000406900020079001200990DC
:1023400002200C90C1030D914FF4E0110E9105A8ED
:10235000FEF746FF08B1FEF7D8F90F2000900220E3
:102360000190002002904FF48060039000200490C0
:1023700002216846FEF710FE08B1FEF7C6F90FB05D
:1023800000BD704701460A48007814280CDA094855
:10239000074A127840F8221005480078401C044A89
:1023A00010701046007870474FF0FF30FBE70000D8
:1023B000510000204C1400200549064A127841F8CB
:1023C000220004490978491C024A11707047000034
:1023D0009C1400205000002018480068184908602C
:1023E0002BE01648006816490968884225D0134832
:1023F000006813490860002419E0124850F82400CE
:1024000080680E490968081A0E4951F82410496875
:1024100088420AD3094800680A4951F824108860A4
:10242000084951F8241008688047601CC4B2064867
:1024300000788442E1DB00F009F8D2E74C0000208C
:10244000540000204C1400205100002010B5002240
:102450002AE0002022E0184951F82010174B53F8C9
:102460002230994218D116490978491E144B197027
:10247000014607E0104C4B1C54F8233044F821303F
:102480004B1C19B20E4B1B789942F3DB00210A4B0F
:102490000B4C247843F82410411C08B208490978F1
:1024A0008842D8DB501C02B2064800788242D0DB5A
:1024B00000200449087010BD4C1400209C1400201A
:1024C000510000205000002070B505466C6A0020C5
:1024D000E085E0842046FFF721F970BD70B506461F
:1024E0000025746A20684069C0F3C01594F8410063
:1024F000212805D125B10020E084204600F0F5F820
:1025000020684069C0F3801594F84200222805D164
:1025100025B10020E085204600F0A1F8606C40F075
:10252000100060642046FFF7F9F870BD70B50546ED
:102530006C6A2868006800F02000002842D1E0851D
:1025400000BF00BF21680C3151E8001F21F48070EA
:1025500021680C3141E80002002AF3D100BF00BF1E
:1025600000BF2168143151E8001F21F001002168EB
:10257000143141E80002002AF3D100BF00BF00BFC0
:102580002168143151E8001F21F040002168143106
:1025900041E80002002AF3D100BF202084F8420065
:1025A000206B01280ED100BF00BF21680C3151E81B
:1025B000001F21F0100021680C3141E80002002AC0
:1025C000F3D100BF00206063206B012804D1A18DEE
:1025D0002046FFF789F802E02046FFF7D3FA70BDE6
:1025E00070B505466C6A01206063206B012802D03B
:1025F0002046FFF7C8FA70BD70B505466C6A2868BA
:10260000006800F02000F8B90020E08400BF00BF9F
:102610002168143151E8001F21F080002168143135
:1026200041E80002002AF3D100BF00BF00BF2168CB
:102630000C3151E8001F41F0400021680C3141E8A5
:102640000002002AF3D102E02046FFF7E3FA70BD52
:1026500070B50446656A2846FFF7DDFA70BD00BF15
:1026600000BF02680C3252E8002F22F49071026819
:102670000C3242E80013002BF3D100BF00BF00BFB3
:102680000268143252E8002F22F00101026814326D
:1026900042E80013002BF3D100BF016B01290ED1DA
:1026A00000BF00BF02680C3252E8002F22F0100178
:1026B00002680C3242E80013002BF3D100BF202146
:1026C00080F8421000210163704710B5044620686D
:1026D000C06820F040002168C860202084F84100D4
:1026E0002046FFF797FA002010BD00BF00BF026828
:1026F0000C3252E8002F22F0C00102680C3242E88E
:102700000013002BF3D100BF202180F84110704747
:10271000F8B5044694F84200222875D1A068B0F5B7
:10272000805F0CD1206950B90025A66A20684068F6
:10273000C0F308003080A06A801CA06215E0A56A82
:102740000026A068B0F5805F03D0A06828B9206992
:1027500018B920684068287004E02068406800F0DC
:102760007F002870A06A401CA062E08D401E80B2ED
:10277000E085002846D12068C06820F0200021684C
:10278000C8602068C06820F480702168C860206834
:10279000406920F0010021684861202084F842004F
:1027A00000206063206B012826D10020206300BF39
:1027B00000BF21680C3151E8001F21F01000216892
:1027C0000C3141E80002002AF3D100BF2068006804
:1027D00000F0100010280AD100BF002000902068EF
:1027E0000068009020684068009000BF00BFA18D85
:1027F0002046FEF779FF02E02046FFF7C3F90020EC
:10280000F8BD01E00020FBE70220F9E770B50446BF
:102810002168096921F44051E2681143226811617D
:102820002269A1681143626941EA02052168C96809
:1028300041F20C62914329432268D16021684969C1
:1028400021F44071A2691143226851612D4A216827
:10285000914202D1FEF77CFC01E0FEF769FC00EB3F
:10286000C00101EB001162689200B1FBF2F100EBD4
:10287000C00202EB001263689B00B2FBF3F2642318
:10288000B2FBF3F202EBC20303EB0212A1EB8201F3
:10289000322202EB01116422B1FBF2F101F0F001EE
:1028A00000EBC00202EB001263689B00B2FBF3F284
:1028B0006423B2FBF3F201EB021200EBC00101EB67
:1028C000001163689B00B1FBF3F100EBC00303EB65
:1028D00000136668B600B3FBF6F36426B3FBF6F3A9
:1028E00003EBC30606EB0313A1EB8301322303EBD7
:1028F00001116423B1FBF3F101F00F0111442268CF
:10290000916070BD0038014077B581B0044615462E
:102910000298A062A58500206064222084F842000D
:102920002848E16B88622848E16BC8622748E16B60
:1029300008630020E16B486302AE32682368191D0A
:102940002B46E06BFEF76AF800BF0020009020687D
:102950000068009020684068009000BF00BF2069B8
:1029600070B100BF00BF21680C3151E8001F41F475
:10297000807021680C3141E80002002AF3D100BFC9
:1029800000BF00BF2168143151E8001F41F0010071
:102990002168143141E80002002AF3D100BF00BFD2
:1029A00000BF2168143151E8001F41F04000216848
:1029B000143141E80002002AF3D100BF002004B026
:1029C00070BD00002D250008E1250008DD24000869
:1029D000014691F84100212828D18868B0F5805F30
:1029E0000BD1086948B90A6A1088C0F308000B685F
:1029F0005860086A801C086205E00B6A581C08626F
:102A000018780B685860C88C401E80B2C88458B9CA
:102A10000868C06820F080000B68D8600868C0684B
:102A200040F040000B68D860002070470220FCE7AF
:102A300010B50248FEF774FE10BD000070000020C3
:102A400010B50348FFF760FA0148FFF777FA10BDA9
:102A50004012002000BFFEE77CB5044600201D4662
:102A6000164600290BD0491ECDE90041044B6A46A9
:102A70002946304600F0F4F8009A002111707CBD20
:102A80008F33000802480068C0F30220704700003E
:102A90000CED00E010B5002804DB0A07130E054A10
:102AA000135406E00A07140E034A00F00F031B1F1D
:102AB000D45410BD00E400E018ED00E002E008C8C6
:102AC000121F08C1002AFAD170477047002001E0A8
:102AD00001C1121F002AFBD1704700002DE9FF5FE2
:102AE00082B00021DDE90430020DDDF840B003437F
:102AF00018D044F61050A2F2FF3242431514119838
:102B000001281FD0A5EB0B00401C5FEA000A4FF024
:102B100000064E4FDFF83891B046504615D5CAF141
:102B2000000413E0119801244AA3012801D16FEA9F
:102B30000B010298119AC0E90031C0E9024206B0C7
:102B4000BDE8F09FCBF10000DFE704460021404ADA
:102B5000491842EB0450CDE9001012E0E00707D01D
:102B600032463B4640464946FDF705FC80468946CD
:102B700032463B4610461946FDF7FDFB06460F461A
:102B80006410002CEAD1DDE90401DDE90023BAF18B
:102B9000000F06DAFDF7EFFB42464B46FDF7EBFB75
:102BA00005E0FDF75AFC42464B46FDF756FC04464D
:102BB0000E460022284BFDF7D7FC03D84FF0FF301C
:102BC000014607E00022254B20463146FDF72CFB4D
:102BD000FDF7B2FC102409E0002C0ADB0A220023D6
:102BE000FDF7F1FA039B30321A55641E50EA0102D8
:102BF000F2D1641C039AC4F111031444119A012AFE
:102C000003D0012208430DD10AE0084304D000207C
:102C10004FF0110B119072E7A3EB0B056D1E0DE049
:102C20005B4504DD4FF0000205F1010504E003DA25
:102C30004FF00002A5F10105002AECD0029811998D
:102C4000C0E90231C0E9004579E700000000144006
:102C50000000F03F300000000000F0430000E03FC3
:102C60002DE9FF4F95B09B468946064600250FE2A9
:102C7000252877D100242746F84A0121059400E051
:102C8000044316F8013F203B01FA03F01042F7D14C
:102C900030782A2811D06FF02F033078A0F130025D
:102CA000092A16D8059A44F0020402EB820203EBCB
:102CB00042021044761C0590EFE759F8042B059268
:102CC000002A03DA504244F40054059044F0020410
:102CD000761C30782E2816D116F8010F44F0040423
:102CE0002A280DD06FF02F023078A0F13003092B85
:102CF00009D807EB870302EB4303C718761CF3E7F9
:102D000059F8047B761C30786C280FD006DC4C28F0
:102D100017D068280DD06A2814D104E0742810D088
:102D20007A280FD10DE044F400140AE044F4801432
:102D300001E044F440147278824202D104F5801418
:102D4000761C761C307866280BD013DC582877D098
:102D500009DC002875D04528F6D04628F4D047284D
:102D60001AD19DE118E0632835D0642879D0652810
:102D700012D195E1702873D008DC6728F1D069285A
:102D80006FD06E280DD06F2806D1B5E073282CD0F7
:102D9000752875D0782874D05A46179990476D1CBD
:102DA00075E1C4F30250022809D003280DD0D9F8E8
:102DB000001004280DD00D6009F1040967E1D9F86D
:102DC0000010EA17C1E90052F6E7D9F800100D80AB
:102DD000F2E70D70F0E719F8041B8DF800100020E1
:102DE0008DF80100EA46012003E059F804AB4FF0EA
:102DF000FF3061074FF0000102D40DE008F101013E
:102E00008846B9420FDA8045F8DB1AF80810002925
:102E1000F4D108E008F1010188468142FADB1AF892
:102E200008100029F6D105985B46A0EB080721465B
:102E30003846179A00F094FA284400EB080507E09A
:102E40004DE029E10DE01AF8010B5A461799904719
:102E5000B8F10108F7D25B4621463846179A13E1CC
:102E600042E00A220092C4F302524FF0000A022A02
:102E700008D059F804CB032A4FEAEC710AD00DE0D0
:102E800029E02AE009F1070121F00702F2E802C176
:102E9000914609E00FFA8CFC4FEAEC71042A03D149
:102EA0004FFA8CFC4FEAEC71002907DA0A46002140
:102EB000DCF1000C61EB02012D2202E0220504D5B9
:102EC0002B228DF80420012203E0E20701D020220A
:102ED000F7E7904659E00A2102E010220DE01021A8
:102EE0004FF0000A00910BE010224FF0000A44F06E
:102EF00004040827009203E008224FF0000A009221
:102F0000C4F30252022A05D059F804CB0021032A47
:102F100008D009E009F1070121F00702F2E802C137
:102F2000914605E01FFA8CFC042A01D10CF0FF0C3D
:102F30004FF00008220728D5702806D0009B83F0A8
:102F4000100353EA0A0305D00EE040228DF8042056
:102F5000012208E05CEA010206D030228DF804204C
:102F60008DF8050002229046009B83F0080353EA87
:102F70000A030AD15CEA010201D1620705D53022B9
:102F80008DF804204FF001087F1E582804D034A08B
:102F900003900EA802900DE036A0F9E75346604674
:102FA000009AFDF710F984460398825C0298401E4F
:102FB000029002705CEA0100F0D1029806A9081A9A
:102FC00000F1200A600702D524F4803400E00127D4
:102FD000574502DDA7EB0A0000E0002000EB0A01E4
:102FE000009005984144401A0590E00306D45B46E2
:102FF0002146179A059800F0B3F90544002706E02A
:1030000001A85A46C05D179990476D1C7F1C474523
:10301000F6DBE0030CD55B462146179A059800F0D5
:103020009FF9054404E030205A46179990476D1CDB
:103030000099481E00900029F5DC08E002980299EA
:103040005A460078491C0291179990476D1CBAF1B5
:103050000001AAF1010AF1DC65E100000928010084
:1030600030313233343536373839616263646566FE
:1030700000000000303132333435363738394142C0
:10308000434445460000000000F058F90544761C12
:10309000307800287FF4ECAD19B02846BDE8F08FF9
:1030A000620700D4062709F1070222F0070CFCE8AA
:1030B0000223E14603F000485FEA080C02D00FF259
:1030C000702C0DE05FEA045C02D50FF2682C07E07B
:1030D0005FEAC47C02D00FF2602C01E0AFF2700C0A
:1030E0004FF0FF3823F00043CDF850C065280CD0D6
:1030F00006DC452809D046281DD047283DD13DE0B3
:10310000662818D067287ED138E00021112F01DB16
:10311000112000E0781CCDE9000106A90EA8FFF7F8
:10312000DDFCDDE90F010E9A03910021009207F109
:10313000010A04914DE04FF000400097CDE90110E5
:1031400006A90EA8FFF7CAFCDDE90F0203920E9B49
:1031500011990022DDF80CA00093049211B9791C9A
:1031600000EB010AB7EB0A0004D4C0F1FF3007F10D
:10317000010A0490AAEB0700019044E0012F00DA55
:1031800001270021112F01DD112000E03846CDE993
:10319000000106A90EA8FFF7A1FCDDE90F010E9AB8
:1031A0000391002104910092BA4621070CD403999F
:1031B000514500DA8A46BAF1010F05DD009AAAF1FD
:1031C0000101515C302908D0B84202DA10F1040F35
:1031D00006DA0121CDE9011015E0AAF10101E9E7C4
:1031E000002805DC049901440491AAEB000102E0E7
:1031F000411C514500DD8A460499401A401C01904B
:103200004FF000400290200704D40198504501DBA4
:10321000CDF8048000208DF84F0002980DF14F0783
:10322000B0F1004F25D02B200E9002984FF00208ED
:1032300000280CDA404202902D200E9007E00A216F
:103240000298FCF7AAFF3031029007F8011DB8F18F
:103250000001A8F10108F2DC02980028EFD1791EE4
:103260000E980870307800F0200040F0450007F814
:10327000020D12A8C01B00F107081498007800B1D5
:10328000012000EB0A01019801EBE071059841442F
:10329000401A401E0590E00306D45B462146179A6B
:1032A000059800F05DF805441498007818B15A4666
:1032B000179990476D1CE00324D55B462146179A69
:1032C000059800F04DF805441CE00498002807DB41
:1032D000DDE90301884203DD0098405C179901E0B5
:1032E000179930205A469047049805F10105401C73
:1032F00004900198401E019004D12E205A4617993F
:1033000090476D1CBAF10001AAF1010ADDDC05E06D
:1033100017F8010B5A46179990476D1CB8F1000138
:10332000A8F10108F4DC5B462146179A0598ABE644
:103330002D0000002B000000200000002DE9F041CE
:10334000044600251E461746880404D405E0394685
:103350002020B0476D1C641EF9D52846BDE8F081D9
:103360002DE9F041044600251E469046C80301D5CC
:10337000302700E02027880404D505E04146384680
:10338000B0476D1C641EF9D52846BDE8F0814A6837
:10339000002A06D00A68531C0B6010704868401E53
:1033A000486070470146012901DC02207047481E31
:1033B00081B241EA610141EAA10141EA211141EAF8
:1033C0002121481C80B2F1E7017A21B102218172EA
:1033D0000021417201E0002181720169491C0161F3
:1033E0007047017A09B1012181720169491C0161AB
:1033F0000021C160417A51B90169142907D9C17A04
:1034000041F00101C1720021016101214172704747
:10341000017AA9B1417A99B9017901F0040179B130
:10342000C168491CC1600169491C0161C16850291A
:103430002FD3C17A41F00401C1720121417228E009
:10344000017A19BB00218172417AF9B9017901F041
:10345000020159B10169142908D8C17A41F0020169
:10346000C172152101610121417212E0017901F05F
:10347000010161B1017901F0020141B9C17A41F064
:103480000101C172002101610121417201E00021AD
:1034900001617047FDF7BAFCFEF740FFFEF7D0FD73
:1034A000FEF7ACFDFEF70CFEFEF71CFDFEF794FFE9
:1034B00000BFFEE702030405060708090A0B0C0D0E
:1034C0000E0F1010010200000000000000000102B9
:1034D00003040607080900000000010203040000BD
:1034E00000350008000000205C000000BC2A000835
:1034F0005C3500085C000020BC180000CC2A0008E5
:1035000000000000100000000100000000127A001E
:10351000F12200080000000000000000412A00081D
:103520000A00000000000000191D00080A00000049
:10353000000000000000000000000000000000008B
:10354000000000000000000000000000000000007B
:0C3550000000000000000000000000006F
:04000005080000ED02
:00000001FF
