:020000040800F2
:10000000081000200101000815180008E11600087A
:100010001118000891010008D51F00080000000019
:10002000000000000000000000000000DF190008D0
:10003000E10100080000000019180008E11900089B
:100040001B0100081B0100081B0100081B01000820
:100050001B0100081B0100081B0100081B01000810
:100060001B0100081B0100081B0100081B01000800
:100070001B0100081B01000895010008A5010008EC
:100080001B0100081B0100081B0100081B010008E0
:100090001B0100081B0100081B0100081B010008D0
:1000A0001B0100081B0100081B0100081B010008C0
:1000B0001B0100081B0100081B0100081B010008B0
:1000C0001B0100081B0100081B0100081B010008A0
:1000D0001B010008C51F00081B0100081B010008C8
:1000E0001B0100081B0100081B010008DFF80CD0F1
:1000F00000F03CF8004800474920000808100020A4
:100100000648804706480047FEE7FEE7FEE7FEE7B1
:10011000FEE7FEE7FEE7FEE7FEE7FEE74F1A000810
:10012000ED00000840EA01039B0703D009E008C97D
:10013000121F08C0042AFAD203E011F8013B00F8AC
:10014000013B521EF9D27047D2B201E000F8012BF8
:10015000491EFBD270470022F6E710B513460A4647
:1001600004461946FFF7F0FF204610BD064C074D28
:1001700006E0E06840F0010394E807009847103477
:10018000AC42F6D3FFF7B6FFE820000808210008CC
:1001900000BFFEE710B5024800F0AAF810BD00004D
:1001A0007C08002010B5024800F0A2F810BD000045
:1001B000C008002030B590F840500124AC40C56B19
:1001C0006C60046863604468102C04D10468A26009
:1001D0000468E16003E00468A1600468E26030BD87
:1001E000704772B600BFFEE70146002291F8210079
:1001F000022808D00420886300BF002081F8200076
:1002000000BF012070470868006820F00E000B68EE
:1002100018600868006820F001000B68186091F809
:10022000403001209840CB6B5860012081F82100BC
:1002300000BF002081F8200000BF1046E2E7000068
:1002400070B50446002594F82100022803D004204C
:10025000A063012548E02068006820F00E002168B6
:1002600008602068006820F00100216808601F49CC
:100270002068884201D1012026E01C491431206801
:10028000884201D110201FE0184928312068884297
:1002900001D1801518E015493C312068884201D110
:1002A000801411E0114950312068884202D14FF486
:1002B000803009E00D4964312068884202D14FF452
:1002C000801001E04FF08070084908394860012033
:1002D00084F8210000BF002084F8200000BF606B7C
:1002E00010B12046616B8847284670BD0800024067
:1002F00070B50446E06B05682068066894F8401005
:10030000042088402840002846D006F00400002839
:1003100042D02068006800F0200028B920680068FA
:1003200020F004002168086057492068884201D104
:10033000042027E0544914312068884201D140202C
:1003400020E0514928312068884201D1001519E088
:100350004D493C312068884202D14FF4804011E081
:10036000494950312068884202D14FF4802009E089
:10037000454964312068884202D14FF4800001E091
:100380004FF08060404908394860E06A00287AD020
:100390002046E16A884776E094F8401002208840C1
:1003A0002840A0B306F0020088B32068006800F07F
:1003B000200040B92068006820F00A002168086029
:1003C000012084F8210030492068884201D10220B0
:1003D00028E02D4914312068884201D1202021E0F5
:1003E000294928312068884201D140151AE0264960
:1003F0003C312068884202D14FF4005012E022497B
:1004000050312068884203D14FF400300AE017E0F1
:100410001D4964312068884202D14FF4001001E088
:100420004FF0007018490839486000BF002084F878
:10043000200000BFA06A30B32046A16A884722E0AE
:1004400094F84010082088402840E0B106F00800E9
:10045000C8B12068006820F00E002168086094F898
:10046000401001208840E16B48600120A06384F8BF
:10047000210000BF002084F8200000BF206B10B1D5
:100480002046216B884770BD0800024001460022CB
:1004900009B901207047164B0868C01A1423B0FB35
:1004A000F3F08000086412480838C863022081F81D
:1004B00021000868026843F6F0708243D1E9010325
:1004C0001843CB6818430B6918434B6918438B6971
:1004D0001843CB6918430243086802600020886310
:1004E000012081F82100002081F8200000BFD1E721
:1004F000080002402DE9F04104460D4616461F460D
:100500004FF0000800BF94F82000012802D102201B
:10051000BDE8F081012084F8200000BF94F821009C
:1005200001282CD1022084F821000020A06320683B
:10053000006820F00100216808603B4632462946E9
:100540002046FFF737FEE06A30B12068006840F0CF
:100550000E00216808600BE02068006820F00400AD
:10056000216808602068006840F00A00216808607F
:100570002068006840F001002168086006E000BFC4
:10058000002084F8200000BF4FF002084046BFE77B
:100590002DE9F8470346002294466EE14FF001082A
:1005A00008FA02F4D1F8008008EA0400A0427DD1E4
:1005B000DFF8DCA2D1F80480A8EB0A09D0453AD0D4
:1005C00014DCB8F1030F50D009DCB8F1000F31D0C2
:1005D000B8F1010F1CD0B8F1020F49D120E0B8F1F9
:1005E000110F18D0B8F1120F42D11EE0B9F5881FD3
:1005F00025D006DCB9F5803F20D0B9F5801F37D172
:100600001AE0B9F5001F18D0B9F5041F30D117E072
:10061000D1F80CC02DE0D1F80C8008F1040C28E0D2
:10062000D1F80C8008F1080C23E0D1F80C8008F117
:100630000C0C1EE000BF00BF00BF00BF00BF00BF2A
:10064000D1F80880B8F1000F02D14FF0040C0BE094
:10065000D1F80880B8F1010F03D14FF0080C1C61EC
:1006600002E04FF0080C5C6103E04FF0000C00E08A
:1006700000BF00BFFF2801D8984601E003F104083D
:100680004646FF2802D84FEA820803E0A2F1080894
:100690004FEA88084746D6F800804FF00F0909FA5C
:1006A00007F928EA09080CFA07F900E088E048EAA7
:1006B0000908C6F80080D1F8048008F08058B8F125
:1006C000805F7DD100BFDFF8CC81D8F8188048F07A
:1006D0000108DFF8C091C9F81880C846D8F818801A
:1006E00008F00108CDF8008000BF00BF4FEAB9381C
:1006F0004FEA920958F829504FEA82784FEA187960
:100700004FF00F0808FA09F825EA0805DFF8888194
:10071000434502D14FF0000816E0DFF880814345E1
:1007200002D14FF001080FE0DFF87481434502D198
:100730004FF0020808E0DFF86C81434502D14FF02A
:10074000030801E04FF004084FEA82794FEA197973
:1007500008FA09F848EA0505DFF84C814FEA9209E2
:1007600048F82950D1F8048008F48018B8F5801FA3
:100770000AD1DFF83881D8F8008048EA0008DFF8AD
:100780002C91C9F8008009E0DFF82081D8F80080BA
:1007900028EA0008DFF81491C9F80080D1F8048035
:1007A00008F40018B8F5001F10D1DFF8008108F137
:1007B0000408D8F8008048EA0008DFF8F09000E06C
:1007C0005AE009F10409C9F800800DE0DFF8DC8087
:1007D00008F10408D8F8008028EA0008DFF8CC9077
:1007E00009F10409C9F80080D1F8048008F4003840
:1007F000B8F5003F0ED1DFF8B480A8F10408D8F8AE
:10080000008048EA0008DFF8A490A9F10409C9F8BB
:1008100000800DE0DFF89480A8F10408D8F800808B
:1008200028EA0008DFF88490A9F10409C9F80080DB
:10083000D1F8048008F48038B8F5803F0ED1DFF895
:100840006C80A8F10808D8F8008048EA0008DFF8B2
:100850005C90A9F10809C9F800800DE0DFF84C8030
:10086000A8F10808D8F8008028EA0008DFF83C90D2
:10087000A9F10809C9F80080521CD1F8008028FAB3
:1008800002F8B8F1000F7FF489AEBDE8F8870000E8
:10089000000011100010024000080140000C01404F
:1008A000001001400014014008000140080401400C
:1008B00001480068704700000000002003480068FD
:1008C0000349097808440149086070470000002086
:1008D0000800002010B50848006840F010000649E4
:1008E0000860032000F0A8F80F2000F007F800F0DF
:1008F0002BF8002010BD00000020024070B5044617
:100900000E4800784FF47A71B1FBF0F00C49096899
:10091000B1FBF0F5284600F0F9FB08B1012070BDED
:10092000102C07D200222146501E00F047F805483F
:10093000046001E00120F2E70020F0E70800002059
:100940000C0000200400002008B500BF1148806999
:1009500040F001000F4988610846806900F00100FD
:10096000009000BF00BF00BF0846C06940F0805043
:10097000C8610846C06900F08050009000BF00BF09
:1009800000BF0549486820F0E06040F00070486012
:1009900000BF08BD001002400000014001460846AB
:1009A000002809DB00F01F0301229A4043099B0045
:1009B00003F1E023C3F8002100BF70472DE9F05F89
:1009C00080460D461646002701F006FB07463946CD
:1009D0002A46334601F00700C0F1070ABAF1040FB6
:1009E00002D94FF0040A01E0C0F1070AD14600F134
:1009F000040ABAF1070F02D24FF0000A01E0A0F199
:100A0000030AD4464FF0010A0AFA09FAAAF1010AC8
:100A10000AEA020A0AFA0CFA4FF0010B0BFA0CFB75
:100A2000ABF1010B0BEA030B4AEA0B0421464046EB
:100A300001F0DAFABDE8F09F00BF00F00702064BB4
:100A400019684FF6FF031940044B0B4343EA022198
:100A5000014B196000BF70470CED00E00000FA0583
:100A600070B504460D460CB9012070BD5A480068A7
:100A700000F00700A8420ED25748006820F0070097
:100A80002843554908600846006800F00700A8425E
:100A900001D00120E9E7207800F0020002281DD1F2
:100AA000207800F00400042805D14C48406840F448
:100AB000E0604A494860207800F00800082805D125
:100AC0004648406840F460504449486043484068A4
:100AD00020F0F000A168084340494860207800F009
:100AE000010078B36068012806D13C48006800F432
:100AF000003090B90120B8E76068022806D1374875
:100B0000006800F0007040B90120AEE7334800688B
:100B100000F0020008B90120A7E73048406820F043
:100B20000300616808432D494860FFF7C1FE06468F
:100B300009E0FFF7BDFE801B41F28831884202D9EF
:100B4000032092E707E02548406800F00C00616848
:100B5000B0EB810FEDD12048006800F00700A842FB
:100B60000ED91D48006820F0070028431A49086084
:100B70000846006800F00700A84201D0012074E791
:100B8000207800F00400042807D11448406820F4BD
:100B9000E060E168084311494860207800F00800EF
:100BA000082808D10D48406820F46050216940EAC7
:100BB000C1000A49486000F03FF808494968C1F39C
:100BC0000311074A515CC84006490860064800689E
:100BD000FFF794FE002048E700200240001002408A
:100BE000CE2000080C00002004000020014800680E
:100BF000704700000C00002000B5FFF7F7FF044924
:100C00004968C1F30221034A515CC84000BD00009D
:100C100000100240DE20000800B5FFF7E7FF04499E
:100C20004968C1F3C221034A515CC84000BD0000BD
:100C300000100240DE20000870B5002100220024D0
:100C400000230020134D696801F00C05F5B1042D57
:100C500002D0082D19D101E00F4819E00F4DC1F362
:100C60008346AB5D01F4803555B10A4D6D68C5F31F
:100C700040450B4E725D084D5D43B5FBF2F402E05A
:100C8000084D03FB05F4204602E000BF024800BF08
:100C900000BF70BD0010024000127A00BC200008A6
:100CA000CC20000800093D00F8B504460CB901202D
:100CB000F8BD207800F00100002878D0F84840689E
:100CC00000F00C0004280CD0F548406800F00C003F
:100CD000082811D1F248406800F48030B0F5803F18
:100CE0000AD1EF48006800F4003000285FD0606847
:100CF00000285CD10120DBE700BF6068B0F5803FD1
:100D000006D1E748006840F48030E549086028E0F3
:100D1000606858B9E248006820F48030E049086013
:100D20000846006820F4802008601AE06068B0F58A
:100D3000A02F0BD1DA48006840F48020D849086021
:100D40000846006840F4803008600AE0D448006833
:100D500020F48030D24908600846006820F48020E2
:100D6000086000BF606888B1FFF7A2FD054606E095
:100D7000FFF79EFD401B642801D9032098E7C8486F
:100D8000006800F400300028F2D010E0FFF790FD7A
:100D9000054606E0FFF78CFD401B642801D90320BF
:100DA00086E7BF48006800F400300028F2D12078C0
:100DB00000F00200022857D1B948406800F00C004A
:100DC00050B1B748406800F00C00082818D1B4486A
:100DD000406800F4803098B9B148006800F0020023
:100DE00020B12069012801D0012061E7AC480068EA
:100DF00020F0F800616940EAC100A949086033E0C9
:100E00002069E8B10120A7490860FFF751FD0546B8
:100E100006E0FFF74DFD401B022801D9032047E7FC
:100E20009F48006800F002000028F2D09C4800684B
:100E300020F0F800616940EAC1009949086013E0B8
:100E4000002098490860FFF733FD054606E0FFF7EC
:100E50002FFD401B022801D9032029E79048006894
:100E600000F002000028F2D1207800F008000828E5
:100E70002DD1A069B8B101208B490860FFF718FD9A
:100E8000054606E0FFF714FD401B022801D90320A8
:100E90000EE78348406A00F002000028F2D00120EB
:100EA00000F0BCFC13E000207F490860FFF700FD64
:100EB000054606E0FFF7FCFC401B022801D9032091
:100EC000F6E67748406A00F002000028F2D1207868
:100ED00000F00400042873D100277148C06900F0B5
:100EE000805070B900BF6E48C06940F080506C49B6
:100EF000C8610846C06900F08050009000BF00BF84
:100F000001276A48006800F48070B0B9674800683B
:100F100040F4807065490860FFF7CAFC054606E0AA
:100F2000FFF7C6FC401B642801D90320C0E65F48D8
:100F3000006800F480700028F2D000BFE06801284B
:100F400006D15748006A40F001005549086227E081
:100F5000E06858B95248006A20F001005049086220
:100F60000846006A20F00400086219E0E0680528DD
:100F70000BD14B48006A40F004004949086208461A
:100F8000006A40F0010008620AE04548006A20F06B
:100F90000100434908620846006A20F00400086224
:100FA00000BFE068A0B1FFF783FC054609E0FFF74A
:100FB0007FFC401B41F28831884202D9032077E64A
:100FC00022E03748006A00F002000028EFD012E06B
:100FD000FFF76EFC054608E0FFF76AFC401B41F294
:100FE0008831884201D9032062E62D48006A00F06A
:100FF00002000028F0D1012F05D12948C06920F056
:1010000080502749C86100BFE069C8B324484068E0
:1010100000F00C00082860D0E069022848D10020C8
:1010200020490866FFF744FC054606E0FFF740FC50
:10103000401B022801D903203AE61948006800F055
:1010400000700028F2D1206AB0F5803F07D1144823
:10105000406820F40030A168084311494860D4E991
:10106000080108430E49496821F4741108430C49EA
:10107000486001200B490866FFF71AFC054607E0A7
:101080003DE0FFF715FC401B022801D903200FE6C5
:101090000348006800F000700028F2D02FE0000044
:1010A00000100240000042428004424200700040B2
:1010B000002014490866FFF7FBFB054606E0FFF732
:1010C000F7FB401B022801D90320F1E50E48006818
:1010D00000F000700028F2D111E0E069012800D191
:1010E000E6E50948466806F48031206A814204D169
:1010F00006F47011606A814201D00120D8E5002019
:10110000D6E50000000042420010024070B50446DF
:101110002546681EB0F1807F01D301200FE0681ED4
:101120004FF0E02148610F214FF0FF3000F05CFFED
:1011300000204FF0E021886107200861002070BD89
:10114000F8B504460D46164694F8420020282DD1E5
:1011500005B10EB90120F8BD0120206300206063B5
:1011600032462946204600F099FE0746206B0128AA
:1011700019D100BF0020009020680068009020680E
:101180004068009000BF00BF00BF00BF21680C3165
:1011900051E8001F41F0100021680C3141E80002C5
:1011A000002AF3D100E001273846D4E70220D2E735
:1011B00070B504460D460849206888420BD107499E
:1011C0002A464868064900F0A1FB4FF40072044922
:1011D0002046FFF7B5FF70BD003801402808002009
:1011E00004090020704700002DE9F84F04462068EC
:1011F00005682068C668206847694FF00009CA463C
:1012000005F00F09B9F1000F0AD105F0200038B13F
:1012100006F0200020B1204600F044FDBDE8F88F24
:10122000B9F1000F7BD007F0010018B906F49070F7
:10123000002874D005F0010030B106F4807018B1B8
:10124000606C40F00100606405F0040030B107F00C
:10125000010018B1606C40F00200606405F002000B
:1012600030B107F0010018B1606C40F00400606418
:1012700005F0080048B106F0200010B907F00100A1
:1012800018B1606C40F008006064606C002845D0C4
:1012900005F0200028B106F0200010B1204600F033
:1012A00001FD20684069C0F3801A606C00F00800FE
:1012B00010B9BAF1000F2CD0204600F09AFC20683B
:1012C000406900F0400000B300BF00BF2168143146
:1012D00051E8001F21F040002168143141E800026C
:1012E000002AF3D100BFE06B50B17748E16B48634F
:1012F000E06BFEF7A5FF88B1E06B416B88470DE01E
:101300002046FFF76FFF09E009E02046FFF76AFF7C
:1013100004E02046FFF766FF002060647EE7206B54
:10132000012877D105F01000002873D006F01000D6
:101330000028FAD000BF00200090206800680090CC
:1013400020684068009000BF00BF2068406900F03E
:10135000400000285FD0E06B006840681FFA80F80A
:10136000B8F1000F55D0A08D404552DDA4F82E8075
:10137000E06B8069202843D000BF00BF21680C319A
:1013800051E8001F21F4807021680C3141E800020F
:10139000002AF3D100BF00BF00BF2168143151E81B
:1013A000001F21F001002168143141E80002002AE9
:1013B000F3D100BF00BF00BF2168143151E8001F06
:1013C00021F040002168143141E80002002AF3D1E5
:1013D00000BF202084F842000020206300BF00BF2F
:1013E00021680C3151E8001F21F0100021680C31F8
:1013F00041E80002002AF3D100BFE06BFEF7F4FEE3
:1014000002206063A08DE28D801A81B22046FFF732
:10141000CFFE03E742E0A08DE18D401A1FFA80F86D
:10142000E08DD0B3B8F1000F37D000BF00BF216806
:101430000C3151E8001F21F4907021680C3141E813
:101440000002002AF3D100BF00BF00BF21681431A1
:1014500051E8001F21F001002168143141E8000229
:10146000002AF3D100BF202084F84200002020632E
:1014700000BF00BF21680C3151E8001F21F01000AF
:1014800021680C3141E80002002AF3D100BF02209C
:10149000606341462046FFF78BFEBFE605F0800003
:1014A00030B106F0800018B1204600F05BFDB5E6D3
:1014B00005F0400030B106F0400018B1204600F0C1
:1014C000CEFBABE600BFA9E6511A000810B50446F2
:1014D0000CB9012010BDA06900B100E000BF94F874
:1014E000410028B9002084F84000204600F02AF886
:1014F000242084F841002068C06820F4005021684E
:10150000C860204600F04CFC2068006920F4904040
:10151000216808612068406920F02A00216848613C
:101520002068C06840F400502168C86000206064F2
:10153000202084F8410084F842000020606300BF4E
:10154000C8E7000010B586B0044600200290039062
:101550000490059037492068884269D100BF364819
:10156000806940F48040344988610846806900F40D
:101570008040019000BF00BF00BF0846806940F076
:10158000040088610846806900F00400019000BFF3
:1015900000BF48150290022003900320059002A985
:1015A0002648FEF7F5FF4FF480600290002003907C
:1015B000049002A92148FEF7EBFF21482149086069
:1015C0001020486000211F4881608021C1600021F7
:1015D000016141618161C161FEF758FF08B1FEF709
:1015E00000FE00BF1748A063446200BF14481430D7
:1015F000154908600020486000211348816080215F
:10160000C1600021016141618161C161FEF73EFF5E
:1016100008B1FEF7E6FD00BF0B48E063446200BF7F
:10162000002211462520FFF7C9F92520FFF7B6F95A
:1016300006B010BD00380140001002400008014013
:10164000440002407C080020C0080020704770471A
:10165000F7B50446154694F84100202836D1019884
:1016600000B10DB90120FEBD01982062A584E5847A
:1016700000206064212084F841001548A16B886235
:101680001448A16BC8621448A16B08630020A16BC9
:10169000486301AE23681A1D31682B46A06BFEF724
:1016A00029FF6FF040002168086000BF00BF21687B
:1016B000143151E8001F41F080002168143141E8E5
:1016C0000002002AF3D100BF0020CCE70220CAE7C5
:1016D0008D1B0008E51B0008651A0008704770475D
:1016E00000BFFEE730B5C1B004460EE0606800F010
:1016F00070F905462A4601A9606800F03DF92A46BE
:1017000001A9A06800F002F900BF606800F061F96B
:101710000028EBD141B030BD70B504460EE0A068A2
:1017200000F057F905462A460949A06800F024F957
:101730002A4607492068FFF78BFF00BFA06800F02A
:1017400048F920B1206890F841002028E7D070BD0A
:10175000040A002008B500BF0E48406940F00100AF
:101760000C4948610846406900F00100009000BF44
:1017700000BF002211460E20FFF720F90E20FFF7D0
:101780000DF9002211460F20FFF718F90F20FFF77F
:1017900005F908BD0010024008B500BF0D4880697A
:1017A00040F020000B4988610846806900F0200065
:1017B000009000BF00BF00BF0846806940F00400F1
:1017C00088610846806900F00400009000BF00BFF7
:1017D00008BD00000010024010B50B480B4908601E
:1017E0004FF4E1304860002108488160C160016128
:1017F0000C21416100218161C161FFF767FE08B1E1
:10180000FEF7EFFC10BD0000003801403408002056
:1018100000BFFEE700BFFEE77047000008B50849BB
:101820000968C9084FF47A72B1FBF2F141430091A3
:1018300000BF00BF00994A1E00920029F9D108BDDF
:101840000C0000202DE9F04704468A4616461D4646
:10185000A088401C1FFA80F92788A0880540012F26
:1018600009D005FB07F085B209FB07F01FFA80F9E4
:1018700006FB07F086B2A9EB0500B04201DD304659
:1018800001E0A9EB05001FFA80F8A168481942465B
:101890005146FEF747FCA6EB08020AEB0801A068D8
:1018A000FEF740FCBDE8F0872DE9F0470446894685
:1018B00016461D46A088401C1FFA80FA2788A0887B
:1018C0000540012F09D005FB07F085B20AFB07F0A0
:1018D0001FFA80FA06FB07F086B2AAEB0500B042B9
:1018E00001DD304601E0AAEB05001FFA80F8A06890
:1018F000411942464846FEF715FCA6EB080209EBE3
:101900000800A168FEF70EFCBDE8F0872DE9F04164
:1019100004460F461546204600F052F80646AE42F1
:1019200000DA354663882A4639462046FFF78AFFA3
:101930006088284460802846BDE8F0812DE9F041A8
:1019400005460F4614461E46B4FBF6F414B1601E5D
:10195000204018B1204600F06AFB04460020688051
:10196000E8802E80AF60022C02DA401EBDE8F081D4
:10197000601EA88020B2F9E770B504460E461546F1
:101980002A463146204600F006F80546E0882844FD
:10199000E080284670BD2DE9F04105460F4614460B
:1019A000284600F016F80646B44200DD3446EB88BF
:1019B000224639462846FFF777FF2046BDE8F081EA
:1019C00001468888401C4A88801ACA88104480B220
:1019D000704701464888CA88801A80B270477047AD
:1019E00010B5FEF76BFF10BD00B58FB0282105A81C
:1019F000FEF7B1FB14216846FEF7ADFB0120059010
:101A000000040690002007900120099002200C900D
:101A1000C1030D914FF4E0110E9105A8FFF744F9B1
:101A200008B1FEF7DEFB0F2000900220019000209D
:101A300002904FF4806003900020049002216846D9
:101A4000FFF70EF808B1FEF7CCFB0FB000BD7047F2
:101A500070B505466C6A0020E085E0842046FFF7FB
:101A6000C1FB70BD70B506460025746A20684069E8
:101A7000C0F3C01594F84100212805D125B10020FC
:101A8000E084204600F0FBF820684069C0F3801530
:101A900094F84200222805D125B10020E085204697
:101AA00000F0A7F8606C40F0100060642046FFF77B
:101AB00099FB70BD70B505466C6A2868006800F037
:101AC0002000002842D1E08500BF00BF21680C3112
:101AD00051E8001F21F4807021680C3141E80002B8
:101AE000002AF3D100BF00BF00BF2168143151E8C4
:101AF000001F21F001002168143141E80002002A92
:101B0000F3D100BF00BF00BF2168143151E8001FAE
:101B100021F040002168143141E80002002AF3D18D
:101B200000BF202084F84200206B01280ED100BFA6
:101B300000BF21680C3151E8001F21F0100021681E
:101B40000C3141E80002002AF3D100BF002060639D
:101B5000206B012804D1A18D2046FFF729FB02E06C
:101B60002046FFF773FD70BD70B505466C6A012015
:101B70006063206B012805D1A08D41082046FFF746
:101B800017FB02E02046FFF762FD70BD70B5054609
:101B90006C6A2868006800F02000F8B90020E08432
:101BA00000BF00BF2168143151E8001F21F0800000
:101BB0002168143141E80002002AF3D100BF00BFC0
:101BC00000BF21680C3151E8001F41F0400021683E
:101BD0000C3141E80002002AF3D102E02046FFF771
:101BE0007DFD70BD70B50446656A2846FFF777FD38
:101BF00070BD00BF00BF02680C3252E8002F22F413
:101C0000907102680C3242E80013002BF3D100BF40
:101C100000BF00BF0268143252E8002F22F0010119
:101C20000268143242E80013002BF3D100BF016BAD
:101C300001290ED100BF00BF02680C3252E8002F0C
:101C400022F0100102680C3242E80013002BF3D19D
:101C500000BF202180F8421000210163704710B5B9
:101C600004462068C06820F040002168C860202039
:101C700084F841002046FFF731FD002010BD00BF71
:101C800000BF02680C3252E8002F22F0C001026847
:101C90000C3242E80013002BF3D100BF202180F862
:101CA00041107047F8B5044694F84200222875D1D7
:101CB000A068B0F5805F0CD1206950B90025A66AF4
:101CC00020684068C0F308003080A06A801CA062D1
:101CD00015E0A56A0026A068B0F5805F03D0A06873
:101CE00028B9206918B920684068287004E0206885
:101CF000406800F07F002870A06A401CA062E08D60
:101D0000401E80B2E085002846D12068C06820F0DF
:101D100020002168C8602068C06820F480702168B5
:101D2000C8602068406920F00100216848612020D7
:101D300084F8420000206063206B012826D1002037
:101D4000206300BF00BF21680C3151E8001F21F063
:101D5000100021680C3141E80002002AF3D100BFD5
:101D60002068006800F0100010280AD100BF002091
:101D7000009020680068009020684068009000BFD4
:101D800000BFA18D2046FFF713FA02E02046FFF7BF
:101D90005DFC0020F8BD01E00020FBE70220F9E730
:101DA00070B504462168096921F44051E268114385
:101DB000226811612269A1681143626941EA020542
:101DC0002168C96841F20C62914329432268D160BD
:101DD0002168496921F44071A26911432268516167
:101DE0002D4A2168914202D1FEF716FF01E0FEF76D
:101DF00003FF00EBC00101EB001162689200B1FB30
:101E0000F2F100EBC00202EB001263689B00B2FB30
:101E1000F3F26423B2FBF3F202EBC20303EB021210
:101E2000A1EB8201322202EB01116422B1FBF2F13B
:101E300001F0F00100EBC00202EB001263689B00AE
:101E4000B2FBF3F26423B2FBF3F201EB021200EBFC
:101E5000C00101EB001163689B00B1FBF3F100EBE3
:101E6000C00303EB00136668B600B3FBF6F3642609
:101E7000B3FBF6F303EBC30606EB0313A1EB8301FD
:101E8000322303EB01116423B1FBF3F101F00F01E5
:101E900011442268916070BD0038014077B581B06F
:101EA000044615460298A062A585002060642220A1
:101EB00084F842002848E16B88622848E16BC862D8
:101EC0002748E16B08630020E16B486302AE32688B
:101ED0002368191D2B46E06BFEF70CFB00BF0020AA
:101EE000009020680068009020684068009000BF63
:101EF00000BF206970B100BF00BF21680C3151E8FC
:101F0000001F41F4807021680C3141E80002002A72
:101F1000F3D100BF00BF00BF2168143151E8001F9A
:101F200041F001002168143141E80002002AF3D198
:101F300000BF00BF00BF2168143151E8001F41F00D
:101F400040002168143141E80002002AF3D100BFAB
:101F5000002004B070BD0000B51A0008691B00081D
:101F6000651A0008014691F84100212828D18868A7
:101F7000B0F5805F0BD1086948B90A6A1088C0F3D0
:101F800008000B685860086A801C086205E00B6A4C
:101F9000581C086218780B685860C88C401E80B2C4
:101FA000C88458B90868C06820F080000B68D86001
:101FB0000868C06840F040000B68D8600020704797
:101FC0000220FCE710B50248FFF70EF910BD000033
:101FD0003408002000BFFEE702480068C0F302207A
:101FE000704700000CED00E010B5002804DB0A0784
:101FF000130E054A135406E00A07140E034A00F0B4
:102000000F031B1FD45410BD00E400E018ED00E0E6
:1020100002E008C8121F08C1002AFAD170477047B1
:10202000002001E001C1121F002AFBD170470146C8
:1020300041EA610141EAA10141EA211141EA21217C
:10204000A1EB610080B27047FEF744FCFFF7CCFCC7
:10205000FFF7A2FBFFF77EFBFFF7BEFB01239A020F
:102060000F491048FFF76AFC01239A020E490F48F6
:10207000FFF764FC0E480F4908600A4848600B48A7
:1020800088604FF4007208680B49FFF759F805E0C3
:102090000848FFF727FB0748FFF73EFBF8E700007B
:1020A0002800002010000020280400201C00002030
:1020B0003408002028080020040900200203040539
:1020C000060708090A0B0C0D0E0F10100102000084
:1020D00000000000000001020304060708090000D8
:1020E0000000010203040000082100080000002095
:1020F0001000000010200008182100081000002027
:10210000F80F000020200008000000001000000070
:082110000100000000127A003A
:04000005080000ED02
:00000001FF
